S01900005553415254202D2044656D6F20526561642E73726563EE
S11300000C945C000C9484000C9484000C94840084
S11300100C9484000C9484000C9484000C9484004C
S11300200C9484000C9484000C9484000C9484003C
S11300300C9484000C9484000C9484000C9484002C
S11300400C94FD000C9484000C943E030C94640303
S11300500C9484000C9484000C9484000C9484000C
S11300600C9484000C9484000C9484000C948400FC
S11300700C9484000C9484000C9484000C948400EC
S11300800C9484000C9484000C9484000C948400DC
S11300900C9484000C9484000C9484000C948400CC
S11300A00C9484000C9484000C9484000C948400BC
S11300B00C9484008A03910311241FBECFEFD8E06F
S11300C0DEBFCDBF11E0A0E0B1E0ECEFFCE002C088
S11300D005900D92AA37B107D9F723E0AAE7B1E05A
S11300E001C01D92A439B207E1F710E0CBE5D0E0DE
S11300F004C02197FE010E946B06CA35D107C9F7D7
S11301000E9498030C9471060C940000FC01208159
S1130110211114C021E02083F89481E0882369F040
S113012085B58A7F85BD85B5826085BDEEE6F0E044
S113013080818160808380E0F1CF78940895FC0110
S11301408FB7F89491E0992331F041815281638112
S1130150748190E0F8CF8FBFCB01BA0108950E945B
S11301609F0028EE33E040E050E00E944906CA01B7
S1130170B90108950E94AF0028EE33E040E050E05A
S11301800E944906CA01B90108958F929F92AF92C5
S1130190BF92CF92DF92EF92FF92CF93DF93EC0165
S11301A04A015B010E94BA006B017C01CE010E94EE
S11301B0BA00DC01CB018C199D09AE09BF09881571
S11301C09905AA05BB0590F3DF91CF91FF90EF90BD
S11301D0DF90CF90BF90AF909F908F900895FC01D7
S11301E0418152816381748140585F4F6F4F7F4FCB
S11301F0418352836383748308951F920F920FB6D1
S11302000F9211242F933F934F935F936F937F9398
S11302108F939F93AF93BF93EF93FF938AE791E0FC
S11302200E94EF00FF91EF91BF91AF919F918F9149
S11302307F916F915F914F913F912F910F900FBEDE
S11302400F901F901895CF92DF92EF92FF920F9329
S11302501F93FC0172836183548343833683258314
S113026010870783F286E186D486C3861F910F9197
S1130270FF90EF90DF90CF900895FC0112821182DD
S113028014821382168215821086178212861186B2
S11302901486138608950F931F93CF93DF93FC0165
S11302A0208121113CC0EC0181E08083CB01BA01A3
S11302B00E94010520E030E040E851E40E948F05EF
S11302C09B01AC0160E074E284E79BE40E9460045B
S11302D020E030E040E85FE30E94F3030E94FC0565
S11302E00E94D204062F172F8AE791E00E9486000D
S11302F0F89481E0882391F0E981FA811083EB81FD
S1130300FC810083E985FA85808186608083EF81A2
S1130310F88580818869808380E0ECCF7894DF91D0
S1130320CF911F910F9108959C014FB7F89491E0DC
S113033080E0992349F0F901E35FFD4F8081319614
S11303409081891B90E0F5CF4FBF0895FC01E35FD6
S1130350FD4F308131962081321751F02081DC012C
S1130360A20FB11D1D968C9190819F5F908308957B
S113037080E008954F925F926F927F928F929F9246
S1130380AF92BF92CF92DF92EF92FF920F931F939F
S1130390CF93DF93EC013B01542E68017901442390
S11303A0D9F10E9494018823C9F18AE791E00E945F
S11303B0AF004B015C01412C552061F18AE791E0CB
S11303C00E94AF00DC01CB0188199909AA09BB0975
S11303D08C159D05AE05BF0538F0C114D104E104A8
S11303E0F10421F480E003C080E001C081E08111C8
S11303F017C0CE010E9494018823F1F283010F5F9C
S11304001F4FCE010E94A601F30180835A944394A6
S11304103801D2CF842D05C080E003C08FEF01C026
S11304208EEFDF91CF911F910F91FF90EF90DF90AE
S1130430CF90BF90AF909F908F907F906F905F9080
S11304404F900895CF93DF93DC01FC01E15FFD4FF2
S113045080818F5FFD01E05FFD4F90818917D1F3AB
S1130460ED01C15FDD4F9881FD01E90FF11DE35FEF
S1130470FE4F608388831796ED91FC9118978081D5
S113048080628083DF91CF910895CF92DF92FF92B3
S11304900F931F93CF93DF936C018B01F42EEB0129
S11304A0C8018F0D911DC817D90728F46991C60199
S11304B00E942202F5CFDF91CF911F910F91FF90FF
S11304C0DF90CF9008950E94220208956AE00E946E
S11304D0630208950F931F93CF93DF938C01EB0175
S11304E06881662329F02196C8010E946302F8CF2F
S11304F0DF91CF911F910F9108950F931F93CF9385
S11305008C01C62F643648F069E2C69F612D112420
S113051062956F70605D0E946302CA30B8F08DEC22
S1130520C89F612D1124669566956695689F812DF7
S11305301124869586958695880F982F990F990F83
S1130540890F681B605DC8010E9463028DECC89F1F
S1130550812D1124869586958695880F982F990F5D
S1130560990F890F6C2F681B605DC8010E9463029C
S1130570CF911F910F910895CF93DF93EC010E94C7
S11305807D02CE010E946602DF91CF910895CF9340
S1130590DF93FC01E35FFD4F3081EC01AB85BC854B
S11305A02C91DC01A30FB11D1D962C9380818F5FCC
S11305B08083DF91CF910895CF93DF93FC01E15FB6
S11305C0FD4F308131962081321791F0DC011B966A
S11305D0CD91DC911C97DF012081820F911DFC01DC
S11305E0E35FFE4F808188838C918F5F8C9308C07A
S11305F0DC011796ED91FC91189780818F7D8083A3
S1130600DF91CF910895AF92BF92CF92DF92EF9294
S1130610FF920F931F93CF93DF93EC015B0101973C
S1130620C9F46F3F7F4FB1F40F2EF6ECCF2ED12CCF
S1130630F02D0F2EF2ECEF2EF12CF02D01EC10E04A
S113064020EC30E044EC50E065EC70E08FE791E0A2
S11306500E942301CD2B39F4AB20A09421F48FE721
S113066091E00E943D01DF91CF911F910F91FF9086
S1130670EF90DF90CF90BF90AF9008951F920F92AC
S11306800FB60F9211242F933F934F935F936F9361
S11306907F938F939F93AF93BF93EF93FF938FE7D2
S11306A091E00E94C702FF91EF91BF91AF919F919A
S11306B08F917F916F915F914F913F912F910F9007
S11306C00FBE0F901F9018951F920F920FB60F92A6
S11306D011242F933F934F935F936F937F938F9343
S11306E09F93AF93BF93EF93FF938FE791E00E94A3
S11306F0DC02FF91EF91BF91AF919F918F917F9118
S11307006F915F914F913F912F910F900FBE0F907A
S11307101F9018956FEF7FEF81E090E00E94030334
S113072008956FEF7FEF80E090E00E940303089547
S113073040E052EC61E070E08FE791E00E944B01F1
S113074060E071E08FE791E00E946A0202E010E04D
S113075020E030E044E060E973E08FE791E00E943C
S1130760BA01C82F8F3F61F0882319F08E3FB1F48E
S11307700EC063E171E08FE791E00E946A022AC033
S113078069E271E08FE791E00E946A0223C06CE3A2
S113079071E08FE791E00E946A021CC06DE471E091
S11307A08FE791E00E946A026C2F8FE791E00E942C
S11307B0BC0268E671E08FE791E00E946A0244E0BF
S11307C060E973E08FE791E00E9445028FE791E0D2
S11307D00E94660241E050E060E070E08AE791E048
S11307E00E94C500B3CF5058BB27AA270E940B0410
S11307F00C9455050E94470538F00E944E0520F0E0
S113080039F49F3F19F426F40C9444050EF4E09552
S1130810E7FB0C943E05E92F0E94660558F3BA17CE
S1130820620773078407950720F079F4A6F50C9402
S113083088050EF4E0950B2EBA2FA02D0B01B901FB
S113084090010C01CA01A0011124FF27591B99F042
S1130850593F50F4503E68F11A16F040A22F232F4E
S1130860342F4427585FF3CF469537952795A7959E
S1130870F0405395C9F77EF41F16BA0B620B730B45
S1130880840BBAF09150A1F0FF0FBB1F661F771FB6
S1130890881FC2F70EC0BA0F621F731F841F48F46B
S11308A0879577956795B795F7959E3F08F0B0CFF4
S11308B09395880F08F09927EE0F979587950895DB
S11308C00E9474040C9455050E944E0558F00E9431
S11308D0470540F029F45F3F29F00C943E0551117F
S11308E00C9489050C9444050E94660568F39923C9
S11308F0B1F3552391F3951B550BBB27AA27621718
S11309007307840738F09F5F5F4F220F331F441F24
S1130910AA1FA9F335D00E2E3AF0E0E832D0915058
S11309205040E695001CCAF72BD0FE2F29D0660F45
S1130930771F881FBB1F261737074807AB07B0E888
S113094009F0BB0B802DBF01FF2793585F4F3AF08E
S11309509E3F510578F00C943E050C9489055F3F49
S1130960E4F3983ED4F3869577956795B795F79514
S11309709F5FC9F7880F911D9695879597F90895FC
S1130980E1E0660F771F881FBB1F62177307840798
S1130990BA0720F0621B730B840BBA0BEE1F88F7A7
S11309A0E09508950E946E0588F09F5798F0B92F3E
S11309B09927B751B0F0E1F0660F771F881F991F90
S11309C01AF0BA95C9F714C0B13091F00E948805A5
S11309D0B1E008950C948805672F782F8827B85FB5
S11309E039F0B93FCCF3869577956795B395D9F7E8
S11309F03EF490958095709561957F4F8F4F9F4FF2
S1130A000895E89409C097FB3EF4909580957095FD
S1130A1061957F4F8F4F9F4F9923A9F0F92F96E946
S1130A20BB279395F695879577956795B795F111BB
S1130A30F8CFFAF4BB0F11F460FF1BC06F5F7F4F58
S1130A408F4F9F4F16C0882311F096E911C077236A
S1130A5021F09EE8872F762F05C0662371F096E873
S1130A60862F70E060E02AF09A95660F771F881F42
S1130A70DAF7880F9695879597F9089597F99F6700
S1130A8080E870E060E008959FEF80EC0895002412
S1130A900A941616170618060906089500240A94DF
S1130AA012161306140605060895092E0394000C65
S1130AB011F4882352F0BB0F40F4BF2B11F460FFF4
S1130AC004C06F5F7F4F8F4F9F4F089557FD90581D
S1130AD0440F551F59F05F3F71F04795880F97FBFE
S1130AE0991F61F09F3F79F08795089512161306B8
S1130AF01406551FF2CF4695F1DF08C016161706E7
S1130B001806991FF1CF869571056105089408951B
S1130B10E894BB2766277727CB0197F908950E94AD
S1130B20A2050C9455050E94470538F00E944E0515
S1130B3020F0952311F00C943E050C9444051124E7
S1130B400C9489050E94660570F3959FC1F3950F77
S1130B5050E0551F629FF001729FBB27F00DB11D3D
S1130B60639FAA27F00DB11DAA1F649F6627B00DCD
S1130B70A11D661F829F2227B00DA11D621F739FB6
S1130B80B00DA11D621F839FA00D611D221F749FC4
S1130B903327A00D611D231F849F600D211D822F0B
S1130BA0762F6A2F11249F5750409AF0F1F0882332
S1130BB04AF0EE0FFF1FBB1F661F771F881F91505F
S1130BC05040A9F79E3F510580F00C943E050C94CB
S1130BD089055F3FE4F3983ED4F38695779567954E
S1130BE0B795F795E7959F5FC1F7FE2B880F911D89
S1130BF09695879597F908950E946E05E8F09E37BB
S1130C00E8F09639B8F49E3848F4672F782F88278F
S1130C10985FF9CF86957795679593959539D0F335
S1130C20B62FB1706B0F711D811D20F487957795D8
S1130C30679593950C9420060C943B060C948905B7
S1130C40882371F4772321F09850872B762F07C0DF
S1130C50662311F499270DC09051862B70E060E053
S1130C602AF09A95660F771F881FDAF7880F9695F2
S1130C70879597F908959F3F31F0915020F4879517
S1130C8077956795B795880F911D9695879597F9F0
S1130C900895A1E21A2EAA1BBB1BFD010DC0AA1FB9
S1130CA0BB1FEE1FFF1FA217B307E407F50720F0D1
S1130CB0A21BB30BE40BF50B661F771F881F991F4C
S1130CC01A9469F760957095809590959B01AC0195
S1130CD0BD01CF010895EE0FFF1F0590F491E02DA3
S1130CE0099410E0CBE5D0E004C0FE010E946B063D
S10F0CF02196CC35D107C9F7F894FFCF4A
S1130CFC5553415254202D2044656D6F205265612B
S1130D0C640A0053697A65206F6620617272617996
S1130D1C206973202730270A004E6F2064617461A8
S1130D2C20617661696C61626C650A0054696D6559
S1130D3C6F7574206F6363757265640A00416D6F1F
S1130D4C756E74206F6620627974657320726563A6
S1130D5C65697665643A200042797465732072651E
S10D0D6C6365697665643A200000AF
S9030000FC
