S0110000525820616E642054582E737265634A
S11300000C9438000C9460000C9460000C94600014
S11300100C9460000C9460000C9460000C946000DC
S11300200C9460000C9460000C9460000C946000CC
S11300300C9460000C9460000C94D4000C94600048
S11300400C9460000C9460000C9414020C943B0219
S11300500C9460000C9460000C9460000C9460009C
S11300600C9460000C946000F8007002FF007702AA
S113007011241FBECFEFD8E0DEBFCDBF11E0A0E05A
S1130080B1E0E6EFFCE002C005900D92AC31B1079F
S1130090D9F721E0ACE1B1E001C01D92AC34B20764
S11300A0E1F710E0C6E3D0E004C02197FE010E940E
S11300B02405C433D107C9F70E947E020C946E064E
S11300C00C940000EF92FF920F931F93FC01768330
S11300D06583508747833287218714870387F68691
S11300E0E5861F910F91FF90EF900895EF92FF9294
S11300F00F931F930197A1F46F3F7F4F89F40F2E45
S1130100F6E4EF2EF12CF02D07E410E02EE630E0BB
S113011045E450E064E470E08CE191E00E94620008
S11301201F910F91FF90EF900895FC01848181113C
S11301301FC0F89481E08823D1F081E08483A581F5
S1130140B6818C9182608C93A781B0858C918260FA
S11301508C93A185B2858C9182608C93A585B6859C
S11301601C92A385B48587EC8C9380E0E4CF7894CB
S11301700895FC018FB7F89491E0992331F0408100
S113018051816281738190E0F8CF8FBFCB01BA01B6
S113019008950E94B90028EE33E040E050E00E9448
S11301A00205CA01B90108951F920F920FB60F926A
S11301B011248F939F93AF93BF93EF93FF93ECE13D
S11301C0F1E080819181A281B3818C599F4FAF4F1F
S11301D0BF4F80839183A283B383FF91EF91BF913B
S11301E0AF919F918F910F900FBE0F901F90189514
S11301F06FEF7FEF81E090E00E94760008956FEF4B
S11302007FEF80E090E00E9476000895CF92DF9225
S1130210EF92FF920F931F93FC0176876587508BB3
S11302204787328B218B148B038BF68AE58AD08E19
S1130230C78A1F910F91FF90EF90DF90CF900895A0
S1130240CF92DF92EF92FF920F931F930197C9F41D
S11302506F3F7F4FB1F40F2EF6ECCF2ED12CF02D43
S11302600F2EF2ECEF2EF12CF02D01EC10E020EC2F
S113027030E044EC50E065EC70E08BE291E00E94E9
S113028006011F910F91FF90EF90DF90CF9008959A
S1130290CF92DF92EF92FF920F931F93CF93DF934E
S11302A0FC01248521116AC0EC0181E08487CB0123
S11302B0BA010E94E30320E030E040E851E40E94E8
S11302C095049B01AC0160E074E284E79BE40E9426
S11302D03B0320E030E040E85FE30E94C9026B0189
S11302E07C0120E030E0A9010E94360388236CF4ED
S11302F020E030E040E05FE3C701B6010E94C9029C
S11303000E94AD03062F172F0CC020E030E040E020
S11303105FE3C701B6010E94CA020E94AD03062F23
S1130320172F61E070E080E091E00E942A05998334
S1130330888361E070E080E091E00E942A059F8359
S11303408E838FEF90E09B838A8399878887F894C4
S113035081E0882391F0ED85FE851083EF85F8898F
S11303600083ED89FE89808186608083EB89FC8926
S113037080818869808380E0ECCF7894DF91CF918D
S11303801F910F91FF90EF90DF90CF900895FC01A3
S11303903FB7F89481E0882339F0948185812281E4
S11303A0981B292380E0F7CF3FBF822F0895FC01DB
S11303B094818581981769F0858192818F5F892363
S11303C08583808191812581FC01E20FF11D80816B
S11303D0089580E00895FC0182858F5F90858923CC
S11303E093858917E9F38287A681B7818285A80F4F
S11303F0B11D6C930388F489E02D80818062808331
S113040008950F931F93CF93DF938C01EB016881C1
S1130410662329F02196C8010E94EB01F8CFDF91F1
S1130420CF911F910F9108951F920F920FB60F92C3
S113043011248F939F93AF93BF93EF93FF93EBE2BA
S1130440F1E0848192818F5F89238483A081B181CB
S11304508481A80FB11D0788F08DE02D80818C93D5
S1130460FF91EF91BF91AF919F918F910F900FBE2C
S11304700F901F9018951F920F920FB60F92112490
S11304802F938F939F93AF93BF93EF93FF93EBE2DD
S1130490F1E092858385981781F0838590858F5F3D
S11304A089238387A789B08D868197812385FC0161
S11304B0E20FF11D80818C9307C0E0913E01F09121
S11304C03F0180818F7D8083FF91EF91BF91AF9138
S11304D09F918F912F910F900FBE0F901F901895A1
S11304E06FEF7FEF81E090E00E94200108956FEFAD
S11304F07FEF80E090E00E942001089540E052ECFC
S113050061E070E08BE291E00E9448018CE191E0AF
S11305100E94950066E071E08BE291E00E94010286
S11305208CE191E00E94C9000091440110914501C1
S11305302091460130914701DC01CB01801B910BD6
S1130540A20BB30B883E9340A105B10590F063E183
S113055071E08BE291E00E9401028CE191E00E9443
S1130560C9006093440170934501809346019093C0
S113057047018BE291E00E94C701882389F28BE254
S113058091E00E94D701682F8BE291E00E94EB0179
S1130590F0CF5058BB27AA270E94E1020C945B04B9
S11305A00E944D0438F00E94540420F039F49F3F17
S11305B019F426F40C944A040EF4E095E7FB0C9429
S11305C04404E92F0E946C0458F3BA1762077307B6
S11305D08407950720F079F4A6F50C948E040EF4A4
S11305E0E0950B2EBA2FA02D0B01B90190010C013F
S11305F0CA01A0011124FF27591B99F0593F50F457
S1130600503E68F11A16F040A22F232F342F4427AE
S1130610585FF3CF469537952795A795F0405395A6
S1130620C9F77EF41F16BA0B620B730B840BBAF076
S11306309150A1F0FF0FBB1F661F771F881FC2F7E1
S11306400EC0BA0F621F731F841F48F487957795F5
S11306506795B795F7959E3F08F0B0CF9395880FAF
S113066008F09927EE0F9795879508950E94200426
S113067008F481E008950E944F030C945B040E94E7
S1130680540458F00E944D0440F029F45F3F29F0CF
S11306900C94440451110C948F040C944A040E9449
S11306A06C0468F39923B1F3552391F3951B550B0F
S11306B0BB27AA2762177307840738F09F5F5F4F31
S11306C0220F331F441FAA1FA9F335D00E2E3AF070
S11306D0E0E832D091505040E695001CCAF72BD088
S11306E0FE2F29D0660F771F881FBB1F26173707D9
S11306F04807AB07B0E809F0BB0B802DBF01FF270B
S113070093585F4F3AF09E3F510578F00C9444049F
S11307100C948F045F3FE4F3983ED4F38695779569
S11307206795B795F7959F5FC9F7880F911D9695C3
S1130730879597F90895E1E0660F771F881FBB1F1F
S1130740621773078407BA0720F0621B730B840BCC
S1130750BA0BEE1F88F7E09508950E94B4036894DD
S1130760B1110C948F0408950E94740488F09F576B
S113077098F0B92F9927B751B0F0E1F0660F771FC1
S1130780881F991F1AF0BA95C9F714C0B13091F0B7
S11307900E948E04B1E008950C948E04672F782F84
S11307A08827B85F39F0B93FCCF38695779567957C
S11307B0B395D9F73EF490958095709561957F4FE8
S11307C08F4F9F4F0895E89409C097FB3EF490958E
S11307D08095709561957F4F8F4F9F4F9923A9F016
S11307E0F92F96E9BB279395F695879577956795A5
S11307F0B795F111F8CFFAF4BB0F11F460FF1BC0E9
S11308006F5F7F4F8F4F9F4F16C0882311F096E97B
S113081011C0772321F09EE8872F762F05C0662329
S113082071F096E8862F70E060E02AF09A95660FE2
S1130830771F881FDAF7880F9695879597F908959B
S1130840990F0008550FAA0BE0E8FEEF16161706DD
S1130850E807F907C0F012161306E407F50798F045
S1130860621B730B840B950B39F40A2661F0232B5E
S1130870242B252B21F408950A2609F4A140A695DA
S11308808FEF811D811D089597F99F6780E870E0BF
S113089060E008959FEF80EC089500240A941616F2
S11308A0170618060906089500240A94121613065A
S11308B0140605060895092E0394000C11F48823E8
S11308C052F0BB0F40F4BF2B11F460FF04C06F5F04
S11308D07F4F8F4F9F4F089557FD9058440F551FDA
S11308E059F05F3F71F04795880F97FB991F61F0AE
S11308F09F3F79F087950895121613061406551F25
S1130900F2CF4695F1DF08C0161617061806991F90
S1130910F1CF86957105610508940895E894BB2785
S113092066277727CB0197F908950E94A8040C94B1
S11309305B040E944D0438F00E94540420F0952377
S113094011F00C9444040C944A0411240C948F0464
S11309500E946C0470F3959FC1F3950F50E0551FEE
S1130960629FF001729FBB27F00DB11D639FAA2700
S1130970F00DB11DAA1F649F6627B00DA11D661F4F
S1130980829F2227B00DA11D621F739FB00DA11D70
S1130990621F839FA00D611D221F749F3327A00D2A
S11309A0611D231F849F600D211D822F762F6A2FC6
S11309B011249F5750409AF0F1F088234AF0EE0F2B
S11309C0FF1FBB1F661F771F881F91505040A9F758
S11309D09E3F510580F00C9444040C948F045F3FB7
S11309E0E4F3983ED4F3869577956795B795F79594
S11309F0E7959F5FC1F7FE2B880F911D969587950C
S1130A0097F90895A1E21A2EAA1BBB1BFD010DC084
S1130A10AA1FBB1FEE1FFF1FA217B307E407F507AA
S1130A2020F0A21BB30BE40BF50B661F771F881F86
S1130A30991F1A9469F760957095809590959B011C
S1130A40AC01BD01CF010895EE0FFF1F0590F49195
S1130A50E02D09940F931F93CF93DF93869F80011A
S1130A60879F100D969F100D1124C8010E94460502
S1130A70EC01009729F0A80160E070E00E9467068D
S1130A80CE01DF91CF911F910F9108950F931F9382
S1130A90CF93DF938230910510F482E090E0E091EF
S1130AA04A01F0914B0120E030E0A0E0B0E0309743
S1130AB019F1408151810281138148175907C8F007
S1130AC08417950769F4109731F012960C931297D6
S1130AD013961C9327C000934A0110934B0122C024
S1130AE02115310519F04217530718F49A01BD0175
S1130AF0EF01DF01F801DBCF21153105F9F0281BE7
S1130B00390B2430310580F48A819B81611571058C
S1130B1021F0FB019383828304C090934B01809363
S1130B204A01FE01329644C0FE01E20FF31F819395
S1130B30919322503109398328833AC02091480186
S1130B4030914901232B41F420910201309103019A
S1130B503093490120934801209100013091010113
S1130B602115310541F42DB73EB740910401509150
S1130B700501241B350BE0914801F0914901E2176E
S1130B80F307A0F42E1B3F0B2817390778F0AC01AC
S1130B904E5F5F4F2417350748F04E0F5F1F509389
S1130BA04901409348018193919302C0E0E0F0E051
S1130BB0CF01DF91CF911F910F910895CF93DF93D0
S1130BC0009709F481C0FC01329713821282A0912C
S1130BD04A01B0914B01109781F420813181820F39
S1130BE0931F20914801309149012817390751F585
S1130BF0F0934901E093480167C0ED0120E030E043
S1130C00CE17DF0740F44A815B819E0141155105EF
S1130C10F1F0EA01F5CFD383C28340815181840F7F
S1130C20951FC817D90759F488819981840F951F96
S1130C300296918380838A819B8193838283211589
S1130C40310529F4F0934B01E0934A013DC0E901D9
S1130C50FB83EA8349915991C40FD51FEC17FD0713
S1130C6061F480819181840F951F0296E901998333
S1130C708883828193819B838A83E0E0F0E01296EB
S1130C808D919C911397009719F0FD01DC01F7CF2A
S1130C908D919C9111979D012E5F3F4F820F931F61
S1130CA020914801309149012817390769F4309798
S1130CB029F410924B0110924A0102C0138212824D
S1130CC0B0934901A0934801DF91CF910895DC01CD
S1130CD001C06D9341505040E0F7089510E0C6E321
S1130CE0D0E004C0FE010E9424052196C833D10738
S1090CF0C9F7F894FFCFE0
S1130CF600004C01200048656C6C6F20576F726CC5
S10F0D06640A0050696E672E2E2E0A004D
S9030000FC
