:100000000C9434000C9451000C9451000C94510049
:100010000C9451000C9451000C9451000C9451001C
:100020000C9451000C9451000C9451000C9451000C
:100030000C9451000C9451000C948A000C945100C3
:100040000C9451000C9451000C9447010C946401E1
:100050000C9451000C9451000C9451000C945100DC
:100060000C9451000C94510011241FBECFEFD8E026
:10007000DEBFCDBF11E0A0E0B1E0EEE6F8E002C0E7
:1000800005900D92A631B107D9F723E0A6E1B1E0C2
:1000900001C01D92A432B207E1F70E948F010C94B7
:1000A00035040C940000FC018081811116C0F89485
:1000B00081E0882389F081E0808394B5926094BDCB
:1000C00095B5926095BDAEE6B0E09C9192609C9330
:1000D00087EC87BD80E0EDCF789408952FB7F89432
:1000E00031E0332351F06091170170911801809134
:1000F000190190911A0130E0F4CF2FBF08950E94AA
:100100006E0028EE33E040E050E00E941304CA0184
:10011000B90108951F920F920FB60F9211248F9379
:100120009F93AF93BF938091170190911801A09175
:100130001901B0911A018C599F4FAF4FBF4F809357
:10014000170190931801A0931901B0931A01BF9160
:10015000AF919F918F910F900FBE0F901F901895A8
:10016000CF92DF92EF92FF92CB01BA010E94F4028C
:1001700020E030E040E851E40E94A6039B01AC017E
:1001800060E074E284E79BE40E944C0220E030E0EF
:1001900040E85FE30E94DA016B017C0120E030E07F
:1001A000A9010E94470288235CF420E030E040E08F
:1001B0005FE3C701B6010E94DA010E94BE020AC0D5
:1001C00020E030E040E05FE3C701B6010E94DB01C0
:1001D0000E94BE027093C5006093C400E1ECF0E0A1
:1001E000808188698083E2ECF0E080818660808392
:1001F000FF90EF90DF90CF9008952FB7F89491E0A3
:10020000992339F080911F0190911E01891B90E084
:10021000F7CF2FBF089590911F0180911E0198176D
:1002200061F080911E018F5F80931E01E0911E019D
:10023000F0E0E05EFD4F8081089580E008959091A8
:100240001D019F5F80911C019817E1F390931D01A0
:10025000E0911D01F0E0E05EFE4F6083E1ECF0E034
:1002600080818062808308950F931F93CF93DF93E3
:100270008C01EB016881662329F02196C8010E9458
:100280001F01F8CFDF91CF911F910F9108951F9219
:100290000F920FB60F9211248F93EF93FF938091DB
:1002A0001F018F5F80931F01E0911F01F0E080919B
:1002B000C600E05EFD4F8083FF91EF918F910F901C
:1002C0000FBE0F901F9018951F920F920FB60F92AE
:1002D00011248F939F93EF93FF9390911D01809131
:1002E0001C01981771F080911C018F5F80931C0195
:1002F000E0911C01F0E0E05EFE4F80818093C6003B
:1003000005C0E1ECF0E080818F7D8083FF91EF916B
:100310009F918F910F900FBE0F901F90189540E006
:1003200052EC61E070E08BE191E00E94B00086E168
:1003300091E00E94530060E071E08BE191E00E9447
:10034000340186E191E00E947F000091200310912A
:1003500021032091220330912303DC01CB01801B78
:10036000910BA20BB30B883E9340A105B10590F011
:100370006DE071E08BE191E00E94340186E191E053
:100380000E947F00609320037093210380932203D7
:10039000909323038BE191E00E94FD00882389F272
:1003A0008BE191E00E940B01682F8BE191E00E94AC
:1003B0001F01F0CF5058BB27AA270E94F2010C94CE
:1003C0006C030E945E0338F00E94650320F039F44C
:1003D0009F3F19F426F40C945B030EF4E095E7FBC1
:1003E0000C945503E92F0E947D0358F3BA17620756
:1003F00073078407950720F079F4A6F50C949F0302
:100400000EF4E0950B2EBA2FA02D0B01B90190012F
:100410000C01CA01A0011124FF27591B99F0593F73
:1004200050F4503E68F11A16F040A22F232F342FBB
:100430004427585FF3CF469537952795A795F04009
:100440005395C9F77EF41F16BA0B620B730B840B1E
:10045000BAF09150A1F0FF0FBB1F661F771F881FD6
:10046000C2F70EC0BA0F621F731F841F48F487952E
:1004700077956795B795F7959E3F08F0B0CF939520
:10048000880F08F09927EE0F9795879508950E9499
:10049000310308F481E008950E9460020C946C031B
:1004A0000E94650358F00E945E0340F029F45F3F0C
:1004B00029F00C94550351110C94A0030C945B0388
:1004C0000E947D0368F39923B1F3552391F3951BA3
:1004D000550BBB27AA2762177307840738F09F5F65
:1004E0005F4F220F331F441FAA1FA9F335D00E2ED2
:1004F0003AF0E0E832D091505040E695001CCAF73F
:100500002BD0FE2F29D0660F771F881FBB1F261701
:1005100037074807AB07B0E809F0BB0B802DBF01D8
:10052000FF2793585F4F3AF09E3F510578F00C94A7
:1005300055030C94A0035F3FE4F3983ED4F38695F3
:1005400077956795B795F7959F5FC9F7880F911DC8
:100550009695879597F90895E1E0660F771F881FB4
:10056000BB1F621773078407BA0720F0621B730B67
:10057000840BBA0BEE1F88F7E09508950E94C50220
:100580006894B1110C94A00308950E94850388F02B
:100590009F5798F0B92F9927B751B0F0E1F0660F47
:1005A000771F881F991F1AF0BA95C9F714C0B13088
:1005B00091F00E949F03B1E008950C949F03672F70
:1005C000782F8827B85F39F0B93FCCF386957795B7
:1005D0006795B395D9F73EF49095809570956195A0
:1005E0007F4F8F4F9F4F0895E89409C097FB3EF4CB
:1005F00090958095709561957F4F8F4F9F4F992370
:10060000A9F0F92F96E9BB279395F69587957795ED
:100610006795B795F111F8CFFAF4BB0F11F460FFAD
:100620001BC06F5F7F4F8F4F9F4F16C0882311F005
:1006300096E911C0772321F09EE8872F762F05C019
:10064000662371F096E8862F70E060E02AF09A95B4
:10065000660F771F881FDAF7880F9695879597F9A9
:100660000895990F0008550FAA0BE0E8FEEF161643
:100670001706E807F907C0F012161306E407F50796
:1006800098F0621B730B840B950B39F40A2661F00A
:10069000232B242B252B21F408950A2609F4A140AD
:1006A000A6958FEF811D811D089597F99F6780E8BA
:1006B00070E060E008959FEF80EC089500240A94B4
:1006C0001616170618060906089500240A9412162D
:1006D0001306140605060895092E0394000C11F460
:1006E000882352F0BB0F40F4BF2B11F460FF04C00D
:1006F0006F5F7F4F8F4F9F4F089557FD9058440F66
:10070000551F59F05F3F71F04795880F97FB991F70
:1007100061F09F3F79F0879508951216130614062D
:10072000551FF2CF4695F1DF08C0161617061806BA
:10073000991FF1CF86957105610508940895E89495
:10074000BB2766277727CB0197F908950E94B90345
:100750000C946C030E945E0338F00E94650320F045
:10076000952311F00C9455030C945B0311240C9405
:10077000A0030E947D0370F3959FC1F3950F50E095
:10078000551F629FF001729FBB27F00DB11D639F43
:10079000AA27F00DB11DAA1F649F6627B00DA11DE9
:1007A000661F829F2227B00DA11D621F739FB00D8F
:1007B000A11D621F839FA00D611D221F749F3327FF
:1007C000A00D611D231F849F600D211D822F762F98
:1007D0006A2F11249F5750409AF0F1F088234AF075
:1007E000EE0FFF1FBB1F661F771F881F91505040E1
:1007F000A9F79E3F510580F00C9455030C94A0037B
:100800005F3FE4F3983ED4F3869577956795B79567
:10081000F795E7959F5FC1F7FE2B880F911D969581
:10082000879597F90895A1E21A2EAA1BBB1BFD011B
:100830000DC0AA1FBB1FEE1FFF1FA217B307E407BF
:10084000F50720F0A21BB30BE40BF50B661F771F17
:10085000881F991F1A9469F76095709580959095F7
:0E0860009B01AC01BD01CF010895F894FFCFBC
:10086E0048656C6C6F20576F726C640A0050696E2D
:06087E00672E2E2E0A0079
:00000001FF
