S01A00005553415254202D2044656D6F205072696E742E737265635C
S11300000C946D000C9495000C9495000C94950040
S11300100C9495000C9495000C9495000C94950008
S11300200C9495000C9495000C9495000C949500F8
S11300300C9495000C9495000C9495000C949500E8
S11300400C94BE000C9495000C9495040C94BB0481
S11300500C9495000C9495000C9495000C949500C8
S11300600C9495000C9495000C9495000C949500B8
S11300700C9495000C9495000C9495000C949500A8
S11300800C9495000C9495000C9495000C94950098
S11300900C9495000C9495000C9495000C94950088
S11300A00C9495000C9495000C9495000C94950078
S11300B00C94950054686973206973206120636807
S11300C061722061727261792066726F6D20464C94
S11300D04153480A0000E104E80411241FBECFEF95
S11300E0D8E0DEBFCDBF11E0A0E0B1E0E2EDFFE07B
S11300F002C005900D92A634B107D9F723E0A6E417
S1130100B1E001C01D92AC35B207E1F710E0CCE6D6
S1130110D0E004C02197FE010E94D607CB36D10758
S1130120C9F70E94EF040C94DC070C940000FC0156
S11301302081211114C021E02083F89481E08823D8
S113014069F085B58A7F85BD85B5826085BDEEE69B
S1130150F0E080818160808380E0F1CF789408951D
S1130160FC01418152816381748140585F4F6F4F1C
S11301707F4F418352836383748308951F920F9248
S11301800FB60F9211242F933F934F935F936F9366
S11301907F938F939F93AF93BF93EF93FF9386E4E3
S11301A091E00E94B000FF91EF91BF91AF919F91B8
S11301B08F917F916F915F914F913F912F910F900C
S11301C00FBE0F901F901895CF92DF92EF92FF927F
S11301D00F931F93FC01728361835483438336839B
S11301E0258310870783F286E186D486C3861F9110
S11301F00F91FF90EF90DF90CF900895FC01128251
S11302001182148213821682158210861782128636
S113021011861486138608950F931F93CF93DF934B
S1130220FC01208121113CC0EC0181E08083CB01E1
S1130230BA010E945D0620E030E040E851E40E94EB
S1130240EB069B01AC0160E074E284E79BE40E944E
S1130250BC0520E030E040E85FE30E944F050E94C7
S113026058070E942E06062F172F86E491E00E945D
S11302709700F89481E0882391F0E981FA81108352
S1130280EB81FC810083E985FA8580818660808327
S1130290EF81F88580818869808380E0ECCF789451
S11302A0DF91CF911F910F910895CF93DF93DC01DC
S11302B0FC01E15FFD4F80818F5FFD01E05FFD4F39
S11302C090818917D1F3ED01C15FDD4F9881FD0164
S11302D0E90FF11DE35FFE4F608388831796ED916C
S11302E0FC911897808180628083DF91CF9108957B
S11302F00E94550108956AE00E9478010895CF9301
S1130300DF93EC010E947801CE010E947B01DF9112
S1130310CF9108950F931F93CF93DF938C01EB013B
S11303206881662329F02196C8010E947801F8CFDC
S1130330DF91CF911F910F910895CF93DF93EC013B
S11303400E948A01CE010E947B01DF91CF91089522
S11303500F931F93CF93DF938C01EB01FE018491E4
S1130360882331F021966491C8010E945501F6CF8B
S1130370DF91CF911F910F9108950F931F93CF9306
S11303808C01C62F643648F069E2C69F612D1124A2
S113039062956F70605D0E947801CA30B8F08DEC90
S11303A0C89F612D1124669566956695689F812D79
S11303B01124869586958695880F982F990F990F05
S11303C0890F681B605DC8010E9478018DECC89F8D
S11303D0812D1124869586958695880F982F990FDF
S11303E0990F890F6C2F681B605DC8010E9478010A
S11303F0CF911F910F910895CF93DF93EC010E9449
S1130400BD01CE010E947B01DF91CF9108950F932E
S11304101F93CF93DF938C01EB01603127E27207C6
S113042078F19B01329522952F7023273F70232763
S1130430A7E4B3E00E94C707AC01569547955695CB
S11304404795569547959A01ADECBCEC0E94C707B9
S1130450969587959695879596958795BC01660F91
S1130460771F880F991F880F991F880F991F860F70
S1130470971F281B390B60E3620FC8010E947801A3
S1130480C83E33E0D30778F19E013695279536951B
S1130490279536952795A5ECB0E20E94C707AC01D5
S11304A0529542954F7045275F7045279A01ADECF0
S11304B0BCEC0E94C7079695879596958795969567
S11304C08795BC01660F771F880F991F880F991FA6
S11304D0880F991F860F971F281B390B60E3620F43
S11304E0C8010E947801C436D10548F19E013695B1
S11304F0279536952795ABE7B4E10E94C707AC0171
S1130500569547959A01ADECBCEC0E94C7079695A9
S113051087959695879596958795BC01660F771F65
S1130520880F991F880F991F880F991F860F971F8F
S1130530281B390B60E3620FC8010E947801CA309E
S1130540D10538F19E01ADECBCEC0E94C707AC01AB
S11305505695479556954795569547959A010E9405
S1130560C707969587959695879596958795BC0127
S1130570660F771F880F991F880F991F880F991F7F
S1130580860F971F281B390B60E3620FC8010E9476
S113059078019E01ADECBCEC0E94C7079695879547
S11305A09695879596958795BC01660F771F880F5A
S11305B0991F880F991F880F991F860F971F281B53
S11305C0390B60E3620FC8010E947801DF91CF917B
S11305D01F910F910895CF93DF93EC010E940702BE
S11305E0CE010E947B01DF91CF9108958F929F925B
S11305F0AF92BF92CF92DF92EF92FF92CF93DF93AD
S1130600EC016A017B0141158AEC58078AE9680705
S11306108BE37807A0F0CB01BA0120E03AEC4AE979
S11306205BE30E94A507CA01B9012AE030E040E07B
S113063050E00E94A507605DCE010E947801C114BC
S113064081EED80685EFE80685E0F806A0F0C7013C
S1130650B60120E031EE45EF55E00E94A507CA013E
S1130660B9012AE030E040E050E00E94A507605D57
S1130670CE010E94780180E8C81686E9D80688E988
S1130680E806F104A0F0C701B60120E836E948E91C
S113069050E00E94A507CA01B9012AE030E040E019
S11306A050E00E94A507605DCE010E94780180E4BD
S11306B0C81682E4D8068FE0E806F104A0F0C7016A
S11306C0B60120E432E44FE050E00E94A507CA01DD
S11306D0B9012AE030E040E050E00E94A507605DE7
S11306E0CE010E94780180EAC81686E8D80681E027
S11306F0E806F104A0F0C701B60120EA36E841E0BB
S113070050E00E94A507CA01B9012AE030E040E0A8
S113071050E00E94A507605DCE010E94780180E14F
S1130720C81687E2D806E104F104A0F0C701B601B7
S113073020E137E240E050E00E94A507CA01B90178
S11307402AE030E040E050E00E94A507605DCE0161
S11307500E94780188EEC81683E0D806E104F1040B
S1130760A0F0C701B60128EE33E040E050E00E945B
S1130770A507CA01B9012AE030E040E050E00E9438
S1130780A507605DCE010E94780184E6C816D104F5
S1130790E104F104A0F0C701B60124E630E040E032
S11307A050E00E94A507CA01B9012AE030E040E008
S11307B050E00E94A507605DCE010E9478018AE0A6
S11307C0C816D104E104F104B8F00F2EFAE08F2E1C
S11307D0912CA12CB12CF02DC701B601A5019401D7
S11307E00E94A507CA01B901A50194010E94A507A9
S11307F0605DCE010E947801C701B6012AE030E0B5
S113080040E050E00E94A507605DCE010E9478019F
S1130810DF91CF91FF90EF90DF90CF90BF90AF909A
S11308209F908F900895CF93DF93EC010E94F6027E
S1130830CE010E947B01DF91CF910895CF93DF9386
S1130840FC01E35FFD4F3081EC01AB85BC852C914D
S1130850DC01A30FB11D1D962C9380818F5F8083D3
S1130860DF91CF910895CF93DF93FC01E15FFD4FBA
S1130870308131962081321791F0DC011B96CD91A5
S1130880DC911C97DF012081820F911DFC01E35F45
S1130890FE4F808188838C918F5F8C9308C0DC012C
S11308A01796ED91FC91189780818F7D8083DF915D
S11308B0CF910895AF92BF92CF92DF92EF92FF92C1
S11308C00F931F93CF93DF93EC015B010197C9F45E
S11308D06F3F7F4FB1F40F2EF6ECCF2ED12CF02DBD
S11308E00F2EF2ECEF2EF12CF02D01EC10E020ECA9
S11308F030E044EC50E065EC70E08BE491E00E9461
S1130900E400CD2B39F4AB20A09421F48BE491E0E6
S11309100E94FE00DF91CF911F910F91FF90EF9005
S1130920DF90CF90BF90AF9008951F920F920FB6B3
S11309300F9211242F933F934F935F936F937F9361
S11309408F939F93AF93BF93EF93FF938BE491E0C7
S11309500E941E04FF91EF91BF91AF919F918F91DF
S11309607F916F915F914F913F912F910F900FBEA7
S11309700F901F9018951F920F920FB60F9211248B
S11309802F933F934F935F936F937F938F939F9393
S1130990AF93BF93EF93FF938BE491E00E943304F2
S11309A0FF91EF91BF91AF919F918F917F916F9143
S11309B05F914F913F912F910F900FBE0F901F9019
S11309C018956FEF7FEF81E090E00E945A0408953C
S11309D06FEF7FEF80E090E00E945A04089540E0BA
S11309E052EC61E070E08BE491E00E940C0160E065
S11309F071E08BE491E00E948A0161E48BE491E070
S1130A000E9478018BE491E00E947B0162E48BE414
S1130A1091E00E947F0164E171E08BE491E00E9427
S1130A208A016AE271E08BE491E00E949D0164EB2B
S1130A3070E08BE491E00E94A8016FEF8BE491E0F9
S1130A400E94BD018BE491E00E947B016EEF8BE478
S1130A5091E00E94FC016FEF7FEF8BE491E00E9434
S1130A6007028BE491E00E947B016EEF7FEF8BE441
S1130A7091E00E94EB024FEF5FEFBA018BE491E04B
S1130A800E94F6028BE491E00E947B014EEF5FEF3F
S1130A906FEF7FEF8BE491E00E941304FFCF505877
S1130AA0BB27AA270E9467050C94B1060E94A306DF
S1130AB038F00E94AA0620F039F49F3F19F426F476
S1130AC00C94A0060EF4E095E7FB0C949A06E92F2B
S1130AD00E94C20658F3BA17620773078407950782
S1130AE020F079F4A6F50C94E4060EF4E0950B2EB0
S1130AF0BA2FA02D0B01B90190010C01CA01A0016C
S1130B001124FF27591B99F0593F50F4503E68F1C6
S1130B101A16F040A22F232F342F4427585FF3CF07
S1130B20469537952795A795F0405395C9F77EF4D8
S1130B301F16BA0B620B730B840BBAF09150A1F021
S1130B40FF0FBB1F661F771F881FC2F70EC0BA0FA7
S1130B50621F731F841F48F4879577956795B7952F
S1130B60F7959E3F08F0B0CF9395880F08F099272A
S1130B70EE0F9795879508950E94D0050C94B106C1
S1130B800E94AA0658F00E94A30640F029F45F3F91
S1130B9029F00C949A0651110C94E5060C94A006C5
S1130BA00E94C20668F39923B1F3552391F3951B70
S1130BB0550BBB27AA2762177307840738F09F5F7A
S1130BC05F4F220F331F441FAA1FA9F335D00E2EE7
S1130BD03AF0E0E832D091505040E695001CCAF754
S1130BE02BD0FE2F29D0660F771F881FBB1F261717
S1130BF037074807AB07B0E809F0BB0B802DBF01EE
S1130C00FF2793585F4F3AF09E3F510578F00C94BC
S1130C109A060C94E5065F3FE4F3983ED4F3869578
S1130C2077956795B795F7959F5FC9F7880F911DDD
S1130C309695879597F90895E1E0660F771F881FC9
S1130C40BB1F621773078407BA0720F0621B730B7C
S1130C50840BBA0BEE1F88F7E09508950E94CA062C
S1130C6088F09F5798F0B92F9927B751B0F0E1F069
S1130C70660F771F881F991F1AF0BA95C9F714C019
S1130C80B13091F00E94E406B1E008950C94E406BA
S1130C90672F782F8827B85F39F0B93FCCF3869552
S1130CA077956795B395D9F73EF4909580957095AF
S1130CB061957F4F8F4F9F4F0895E89409C097FB2C
S1130CC03EF490958095709561957F4F8F4F9F4F1F
S1130CD09923A9F0F92F96E9BB279395F695879563
S1130CE077956795B795F111F8CFFAF4BB0F11F426
S1130CF060FF1BC06F5F7F4F8F4F9F4F16C08823CD
S1130D0011F096E911C0772321F09EE8872F762F02
S1130D1005C0662371F096E8862F70E060E02AF043
S1130D209A95660F771F881FDAF7880F969587952F
S1130D3097F9089597F99F6780E870E060E0089557
S1130D409FEF80EC089500240A94161617061806DF
S1130D500906089500240A941216130614060506BB
S1130D600895092E0394000C11F4882352F0BB0F4C
S1130D7040F4BF2B11F460FF04C06F5F7F4F8F4FAF
S1130D809F4F089557FD9058440F551F59F05F3FEA
S1130D9071F04795880F97FB991F61F09F3F79F099
S1130DA087950895121613061406551FF2CF46951B
S1130DB0F1DF08C0161617061806991FF1CF86959D
S1130DC07105610508940895E894BB276627772781
S1130DD0CB0197F908950E94FE060C94B1060E9477
S1130DE0A30638F00E94AA0620F0952311F00C9473
S1130DF09A060C94A00611240C94E5060E94C206DF
S1130E0070F3959FC1F3950F50E0551F629FF00159
S1130E10729FBB27F00DB11D639FAA27F00DB11D72
S1130E20AA1F649F6627B00DA11D661F829F2227FB
S1130E30B00DA11D621F739FB00DA11D621F839F82
S1130E40A00D611D221F749F3327A00D611D231F58
S1130E50849F600D211D822F762F6A2F11249F57A6
S1130E6050409AF0F1F088234AF0EE0FFF1FBB1FA9
S1130E70661F771F881F91505040A9F79E3F510568
S1130E8080F00C949A060C94E5065F3FE4F3983ED8
S1130E90D4F3869577956795B795F795E7959F5F12
S1130EA0C1F7FE2B880F911D9695879597F90895A4
S1130EB00E94CA06E8F09E37E8F09639B8F49E38E6
S1130EC048F4672F782F8827985FF9CF8695779510
S1130ED0679593959539D0F3B62FB1706B0F711D4B
S1130EE0811D20F487957795679593950C947C07DD
S1130EF00C9497070C94E506882371F4772321F06A
S1130F009850872B762F07C0662311F499270DC0BC
S1130F109051862B70E060E02AF09A95660F771F57
S1130F20881FDAF7880F9695879597F908959F3F5C
S1130F3031F0915020F4879577956795B795880F90
S1130F40911D9695879597F90895A1E21A2EAA1BEB
S1130F50BB1BFD010DC0AA1FBB1FEE1FFF1FA21765
S1130F60B307E407F50720F0A21BB30BE40BF50B62
S1130F70661F771F881F991F1A9469F760957095EB
S1130F80809590959B01AC01BD01CF010895A29F6E
S1130F90B001B39FC001A39F700D811D1124911D49
S1130FA0B29F700D811D1124911D0895EE0FFF1F36
S1130FB00590F491E02D099410E0CCE6D0E004C053
S1130FC0FE010E94D6072196CD36D107C9F7F894C1
S1050FD0FFCF4D
S1130FD25553415254202D2044656D6F205072693F
S1130FE26E740A005468697320697320612063680F
S1130FF261722061727261790A00546869732069AE
S11310027320616E6F746865722063686172206117
S109101272726179000016
S9030000FC
