S01A00005553415254202D2044656D6F205072696E742E737265635C
S11300000C945E000C9486000C9486000C9486007C
S11300100C9486000C9486000C9486000C94860044
S11300200C9486000C9486000C9486000C94860034
S11300300C9486000C9486000C9486000C94860024
S11300400C94AF000C9486000C945B020C94810217
S11300500C9486000C9486000C9486000C94860004
S11300600C9486000C9486000C9486000C948600F4
S11300700C94F0020C9416030C9486000C948600E5
S11300800C9486000C9486000C9486000C948600D4
S11300900C9486000C9486000C9486000C948600C4
S11300A00C9486000C9486000C9486000C948600B4
S11300B00C948600A7023C03AE02430311241FBE26
S11300C0CFEFD8E0DEBFCDBF11E0A0E0B1E0EAEBB6
S11300D0FBE002C005900D92AC30B107D9F725E0E2
S11300E0ACE0B1E001C01D92A333B207E1F710E028
S11300F0CCE5D0E004C02197FE010E94CA05CA35B0
S1130100D107C9F70E944A030C94D0050C9400004F
S1130110FC012081211114C021E02083F89481E0A6
S1130120882369F085B58A7F85BD85B5826085BDE4
S1130130EEE6F0E080818160808380E0F1CF789406
S11301400895FC01418152816381748140585F4F5D
S11301506F4F7F4F418352836383748308951F924B
S11301600F920FB60F9211242F933F934F935F93E7
S11301706F937F938F939F93AF93BF93EF93FF936B
S11301808CE091E00E94A100FF91EF91BF91AF91AB
S11301909F918F917F916F915F914F913F912F919B
S11301A00F900FBE0F901F901895CF92DF92EF9291
S11301B0FF920F931F93FC017283618354834383E3
S11301C03683258310870783F286E186D486C38627
S11301D01F910F91FF90EF90DF90CF900895FC0155
S11301E0128211821482138216821582108617825B
S11301F0128611861486138608950F931F93CF9346
S1130200DF93FC01208121113CC0EC0181E080835B
S1130210CB01BA010E94820420E030E040E851E4BE
S11302200E9410059B01AC0160E074E284E79BE44A
S11302300E94E10320E030E040E85FE30E947403A1
S11302400E947D050E945304062F172F8CE091E035
S11302500E948800F89481E0882391F0E981FA8172
S11302601083EB81FC810083E985FA8580818660B7
S11302708083EF81F88580818869808380E0ECCF7A
S11302807894DF91CF911F910F9108959C014FB7FE
S1130290F89491E080E0992349F0F901E35FFD4F80
S11302A0808131969081891B90E0F5CF4FBF0895EE
S11302B0FC01E35FFD4F308131962081321751F00C
S11302C02081DC01A20FB11D1D968C9190819F5F4E
S11302D09083089580E00895CF93DF93DC01FC01BF
S11302E0E15FFD4F80818F5FFD01E05FFD4F9081F5
S11302F08917D1F3ED01C15FDD4F9881FD01E90F4D
S1130300F11DE35FFE4F608388831796ED91FC91A6
S11303101897808180628083DF91CF9108950E9435
S11303206C0108950F931F93CF93DF938C01EB011E
S11303306881662329F02196C8010E948F01F8CFB5
S1130340DF91CF911F910F9108950F931F93CF9336
S11303508C01C62F643648F069E2C69F612D1124D2
S113036062956F70605D0E948F01CA30B8F08DECA9
S1130370C89F612D1124669566956695689F812DA9
S11303801124869586958695880F982F990F990F35
S1130390890F681B605DC8010E948F018DECC89FA6
S11303A0812D1124869586958695880F982F990F0F
S11303B0990F890F6C2F681B605DC8010E948F0123
S11303C0CF911F910F910895CF93DF93FC01E35FC9
S11303D0FD4F3081EC01AB85BC852C91DC01A30F72
S11303E0B11D1D962C9380818F5F8083DF91CF9107
S11303F00895CF93DF93FC01E15FFD4F3081319687
S11304002081321791F0DC011B96CD91DC911C9771
S1130410DF012081820F911DFC01E35FFE4F80818B
S113042088838C918F5F8C9308C0DC011796ED91C3
S1130430FC91189780818F7D8083DF91CF910895FF
S1130440AF92BF92CF92DF92EF92FF920F931F93DE
S1130450CF93DF93EC015B010197C9F46F3F7F4FAA
S1130460B1F40F2EF6ECCF2ED12CF02D0F2EF2EC92
S1130470EF2EF12CF02D01EC10E020EC30E044ECF8
S113048050E065EC70E081E191E00E94D500CD2B55
S113049039F4AB20A09421F481E191E00E94EF00B3
S11304A0DF91CF911F910F91FF90EF90DF90CF904C
S11304B0BF90AF9008951F920F920FB60F92112420
S11304C02F933F934F935F936F937F938F939F9358
S11304D0AF93BF93EF93FF9381E191E00E94E40116
S11304E0FF91EF91BF91AF919F918F917F916F9108
S11304F05F914F913F912F910F900FBE0F901F90DE
S113050018951F920F920FB60F9211242F933F93B9
S11305104F935F936F937F938F939F93AF93BF9307
S1130520EF93FF9381E191E00E94F901FF91EF9134
S1130530BF91AF919F918F917F916F915F914F91F7
S11305403F912F910F900FBE0F901F9018956FEF52
S11305507FEF81E090E00E94200208956FEF7FEF2B
S113056080E090E00E9420020895AF92BF92CF9263
S1130570DF92EF92FF920F931F93CF93DF93EC01DF
S11305805B010197C9F46F3F7F4FB1F40F2EFEEC6E
S1130590CF2ED12CF02D0F2EFAECEF2EF12CF02DC6
S11305A009EC10E028EC30E04CEC50E06DEC70E02D
S11305B082E293E00E94D500CD2B39F4AB20A094C5
S11305C021F482E293E00E94EF00DF91CF911F912A
S11305D00F91FF90EF90DF90CF90BF90AF90089570
S11305E01F920F920FB60F9211242F933F934F93A4
S11305F05F936F937F938F939F93AF93BF93EF9387
S1130600FF9382E293E00E94E401FF91EF91BF9196
S1130610AF919F918F917F916F915F914F913F9196
S11306202F910F900FBE0F901F9018951F920F924D
S11306300FB60F9211242F933F934F935F936F93B1
S11306407F938F939F93AF93BF93EF93FF9382E234
S113065093E00E94F901FF91EF91BF91AF919F91B7
S11306608F917F916F915F914F913F912F910F9057
S11306700FBE0F901F9018956FEF7FEF81E090E011
S11306800E94B50208956FEF7FEF80E090E00E9432
S1130690B50208958CE091E00E94880040E052EC9D
S11306A061E070E081E191E00E94FD0040E855E2E4
S11306B060E070E082E293E00E94FD0060E071E09F
S11306C081E191E00E94920182E293E00E9446015E
S11306D08823D1F382E293E00E945801682F81E1DC
S11306E091E00E94A501F0CF5058BB27AA270E9491
S11306F08C030C94D6040E94C80438F00E94CF04E2
S113070020F039F49F3F19F426F40C94C5040EF438
S1130710E095E7FB0C94BF04E92F0E94E70458F32B
S1130720BA17620773078407950720F079F4A6F5D2
S11307300C9409050EF4E0950B2EBA2FA02D0B0195
S1130740B90190010C01CA01A0011124FF27591B12
S113075099F0593F50F4503E68F11A16F040A22F18
S1130760232F342F4427585FF3CF46953795279589
S1130770A795F0405395C9F77EF41F16BA0B620B88
S1130780730B840BBAF09150A1F0FF0FBB1F661FCF
S1130790771F881FC2F70EC0BA0F621F731F841F12
S11307A048F4879577956795B795F7959E3F08F038
S11307B0B0CF9395880F08F09927EE0F97958795FA
S11307C008950E94F5030C94D6040E94CF0458F0B7
S11307D00E94C80440F029F45F3F29F00C94BF0440
S11307E051110C940A050C94C5040E94E70468F3A3
S11307F09923B1F3552391F3951B550BBB27AA27D6
S113080062177307840738F09F5F5F4F220F331F0F
S1130810441FAA1FA9F335D00E2E3AF0E0E832D0D7
S113082091505040E695001CCAF72BD0FE2F29D0DA
S1130830660F771F881FBB1F261737074807AB07AC
S1130840B0E809F0BB0B802DBF01FF2793585F4F21
S11308503AF09E3F510578F00C94BF040C940A05BD
S11308605F3FE4F3983ED4F3869577956795B79503
S1130870F7959F5FC9F7880F911D9695879597F90E
S11308800895E1E0660F771F881FBB1F6217730787
S11308908407BA0720F0621B730B840BBA0BEE1F9C
S11308A088F7E09508950E94EF0488F09F5798F028
S11308B0B92F9927B751B0F0E1F0660F771F881F61
S11308C0991F1AF0BA95C9F714C0B13091F00E947B
S11308D00905B1E008950C940905672F782F88273E
S11308E0B85F39F0B93FCCF3869577956795B395A2
S11308F0D9F73EF490958095709561957F4F8F4F11
S11309009F4F0895E89409C097FB3EF49095809515
S1130910709561957F4F8F4F9F4F9923A9F0F92FC1
S113092096E9BB279395F695879577956795B7953F
S1130930F111F8CFFAF4BB0F11F460FF1BC06F5F25
S11309407F4F8F4F9F4F16C0882311F096E911C037
S1130950772321F09EE8872F762F05C0662371F058
S113096096E8862F70E060E02AF09A95660F771F6C
S1130970881FDAF7880F9695879597F9089597F960
S11309809F6780E870E060E008959FEF80EC089531
S113099000240A941616170618060906089500245A
S11309A00A9412161306140605060895092E0394D4
S11309B0000C11F4882352F0BB0F40F4BF2B11F448
S11309C060FF04C06F5F7F4F8F4F9F4F089557FDA7
S11309D09058440F551F59F05F3F71F04795880FA9
S11309E097FB991F61F09F3F79F087950895121640
S11309F013061406551FF2CF4695F1DF08C01616EC
S1130A0017061806991FF1CF86957105610508949C
S1130A100895E894BB2766277727CB0197F90895B3
S1130A200E9423050C94D6040E94C80438F00E9446
S1130A30CF0420F0952311F00C94BF040C94C5044A
S1130A4011240C940A050E94E70470F3959FC1F3E6
S1130A50950F50E0551F629FF001729FBB27F00D68
S1130A60B11D639FAA27F00DB11DAA1F649F6627BD
S1130A70B00DA11D661F829F2227B00DA11D621F0C
S1130A80739FB00DA11D621F839FA00D611D221FC6
S1130A90749F3327A00D611D231F849F600D211DAA
S1130AA0822F762F6A2F11249F5750409AF0F1F02D
S1130AB088234AF0EE0FFF1FBB1F661F771F881F96
S1130AC091505040A9F79E3F510580F00C94BF040B
S1130AD00C940A055F3FE4F3983ED4F3869577952A
S1130AE06795B795F795E7959F5FC1F7FE2B880F3C
S1130AF0911D9695879597F908950E94EF04E8F063
S1130B009E37E8F09639B8F49E3848F4672F782F6A
S1130B108827985FF9CF869577956795939595394A
S1130B20D0F3B62FB1706B0F711D811D20F4879522
S1130B307795679593950C94A1050C94BC050C943A
S1130B400A05882371F4772321F09850872B762F98
S1130B5007C0662311F499270DC09051862B70E0CD
S1130B6060E02AF09A95660F771F881FDAF7880FDE
S1130B709695879597F908959F3F31F0915020F409
S1130B80879577956795B795880F911D9695879565
S1130B9097F90895EE0FFF1F0590F491E02D099445
S1130BA010E0CCE5D0E004C0FE010E94CA05219605
S10D0BB0CE35D107C9F7F894FFCF42
S10F0BBA525334383520536C61766500CA
S9030000FC
