:100000000C9440000C945D000C945D000C945D0019
:100010000C945D000C945D000C945D000C945D00EC
:100020000C945D000C945D000C945D000C945D00DC
:100030000C945D000C945D000C9474000C945D00B5
:100040000C945D000C945D000C94A1010C94BE0115
:100050000C945D000C945D000C945D000C945D00AC
:100060000C945D000C945D00476F742064617461B2
:100070003A200048656C6C6F20576F726C640A0000
:1000800011241FBECFEFD8E0DEBFCDBF11E0A0E04E
:10009000B1E0EAECFEE002C005900D92A431B10798
:1000A000D9F723E0A4E1B1E001C01D92AE33B2075D
:1000B000E1F70E94E9010C9463070C940000F894A6
:1000C00081E0882379F084B5826084BD85B5826043
:1000D00085BDEEE6F0E080818260808387EC87BD9D
:1000E00080E0EFCF789408951F920F920FB60F9291
:1000F00011248F939F93AF93BF938091150190919B
:100100001601A0911701B09118018C599F4FAF4F64
:10011000BF4F8093150190931601A0931701B093E0
:100120001801BF91AF919F918F910F900FBE0F90CB
:100130001F901895CF92DF92EF92FF92CB01BA01F8
:100140000E94500320E030E040E851E40E940204A5
:100150009B01AC0160E074E284E79BE40E94A8028A
:1001600020E030E040E85FE30E9436026B017C0152
:1001700020E030E0A9010E94A30288235CF420E083
:1001800030E040E05FE3C701B6010E9436020E9402
:100190001A030AC020E030E040E05FE3C701B60187
:1001A0000E9437020E941A037093C5006093C40036
:1001B000E1ECF0E0808188698083E2ECF0E080810E
:1001C00086608083FF90EF90DF90CF9008952FB7E7
:1001D000F89491E0992339F080911D0190911C01D0
:1001E000891B90E0F7CF2FBF089590911D0180915A
:1001F0001C01981761F080911C018F5F80931C0196
:10020000E0911C01F0E0E25EFD4F8081089580E006
:100210000895FF920F931F93CF93DF93EC018B010F
:10022000F42E0E94E700882381F0CE010E94E700AF
:100230008823D9F3CE010E94F5008F1529F0F8012B
:1002400080830F5F1F4FF1CF81E0DF91CF911F912E
:100250000F91FF90089590911B019F5F80911A016B
:100260009817E1F390931B01E0911B01F0E0E25E2F
:10027000FE4F6083E1ECF0E080818062808308952E
:100280000F931F93CF93DF938C01EB01688166235B
:1002900029F02196C8010E942B01F8CFDF91CF9160
:1002A0001F910F9108950F931F93CF93DF93CDB7B5
:1002B000DEB7DA950FB6F894DEBF0FBECDBF8E0164
:1002C0000F5F1F4F80E091E0F8019C0111922150D7
:1002D0003040E1F79E01255F3E4FC75FDE4F48810A
:1002E0005981C950D14060E071E0C8010E946F049B
:1002F000B801C95FDE4F88819981C750D1400E9403
:100300004001D3950FB6F894DEBF0FBECDBFDF918D
:10031000CF911F910F9108950F931F93CF93DF9368
:100320008C01EB01FE018491882331F021966491C8
:10033000C8010E942B01F6CFDF91CF911F910F9141
:1003400008951F920F920FB60F9211248F93EF937F
:10035000FF9380911D018F5F80931D01E0911D012E
:10036000F0E08091C600E25EFD4F8083FF91EF9147
:100370008F910F900FBE0F901F9018951F920F92A4
:100380000FB60F9211248F939F93EF93FF93909149
:100390001B0180911A01981771F080911A018F5FEB
:1003A00080931A01E0911A01F0E0E25EFE4F808135
:1003B0008093C60005C0E1ECF0E080818F7D8083F2
:1003C000FF91EF919F918F910F900FBE0F901F9013
:1003D000189540E052EC61E070E089E191E00E9404
:1003E0009A0084E191E00E945F0063E770E089E198
:1003F00091E00E948C0144E26EE173E089E191E0BA
:100400000E9409018823B9F31F928CE08F931F92F9
:100410008F931F928F9380E091E09F938F9389E158
:1004200091E09F938F930E94530168E670E089E109
:1004300091E00E948C016EE173E089E191E00E94FD
:1004400040016AE089E191E00E942B0180E2EEE147
:10045000F3E0DF011D928A95E9F78DB79EB70A9602
:100460000FB6F8949EBF0FBE8DBFC5CF5058BB27A7
:10047000AA270E944E020C94C8030E94BA0338F0C7
:100480000E94C10320F039F49F3F19F426F40C9424
:10049000B7030EF4E095E7FB0C94B103E92F0E943B
:1004A000D90358F3BA17620773078407950720F03A
:1004B00079F4A6F50C94FB030EF4E0950B2EBA2FFD
:1004C000A02D0B01B90190010C01CA01A00111245A
:1004D000FF27591B99F0593F50F4503E68F11A1606
:1004E000F040A22F232F342F4427585FF3CF469597
:1004F00037952795A795F0405395C9F77EF41F16B9
:10050000BA0B620B730B840BBAF09150A1F0FF0F82
:10051000BB1F661F771F881FC2F70EC0BA0F621F6E
:10052000731F841F48F4879577956795B795F7955E
:100530009E3F08F0B0CF9395880F08F09927EE0FF3
:100540009795879508950E948D0308F481E008959A
:100550000E94BC020C94C8030E94C10358F00E9480
:10056000BA0340F029F45F3F29F00C94B103511114
:100570000C94FC030C94B7030E94D90368F39923ED
:10058000B1F3552391F3951B550BBB27AA2762178F
:100590007307840738F09F5F5F4F220F331F441F9C
:1005A000AA1FA9F335D00E2E3AF0E0E832D09150D0
:1005B0005040E695001CCAF72BD0FE2F29D0660FBD
:1005C000771F881FBB1F261737074807AB07B0E800
:1005D00009F0BB0B802DBF01FF2793585F4F3AF006
:1005E0009E3F510578F00C94B1030C94FC035F3FDF
:1005F000E4F3983ED4F3869577956795B795F7958C
:100600009F5FC9F7880F911D9695879597F9089573
:10061000E1E0660F771F881FBB1F6217730784070F
:10062000BA0720F0621B730B840BBA0BEE1F88F71E
:10063000E09508950E9421036894B1110C94FC0385
:1006400008950E94E10388F09F5798F0B92F9927E9
:10065000B751B0F0E1F0660F771F881F991F1AF0AD
:10066000BA95C9F714C0B13091F00E94FB03B1E014
:1006700008950C94FB03672F782F8827B85F39F013
:10068000B93FCCF3869577956795B395D9F73EF446
:1006900090958095709561957F4F8F4F9F4F0895EE
:1006A000E89409C097FB3EF490958095709561950C
:1006B0007F4F8F4F9F4F9923A9F0F92F96E9BB27C2
:1006C0009395F695879577956795B795F111F8CF3E
:1006D000FAF4BB0F11F460FF1BC06F5F7F4F8F4FA9
:1006E0009F4F16C0882311F096E911C0772321F09F
:1006F0009EE8872F762F05C0662371F096E8862F37
:1007000070E060E02AF09A95660F771F881FDAF78D
:10071000880F9695879597F90895990F0008550FBA
:10072000AA0BE0E8FEEF16161706E807F907C0F077
:1007300012161306E407F50798F0621B730B840B7F
:10074000950B39F40A2661F0232B242B252B21F459
:1007500008950A2609F4A140A6958FEF811D811DF9
:10076000089597F99F6780E870E060E008959FEF33
:1007700080EC089500240A94161617061806090638
:10078000089500240A941216130614060506089507
:10079000092E0394000C11F4882352F0BB0F40F48F
:1007A000BF2B11F460FF04C06F5F7F4F8F4F9F4FCF
:1007B000089557FD9058440F551F59F05F3F71F051
:1007C0004795880F97FB991F61F09F3F79F08795B8
:1007D0000895121613061406551FF2CF4695F1DF41
:1007E00008C0161617061806991FF1CF86957105D1
:1007F000610508940895E894BB2766277727CB0105
:1008000097F908950E9415040C94C8030E94BA0336
:1008100038F00E94C10320F0952311F00C94B1032D
:100820000C94B70311240C94FC030E94D90370F3B9
:10083000959FC1F3950F50E0551F629FF001729F85
:10084000BB27F00DB11D639FAA27F00DB11DAA1F94
:10085000649F6627B00DA11D661F829F2227B00DE1
:10086000A11D621F739FB00DA11D621F839FA00D6C
:10087000611D221F749F3327A00D611D231F849FBC
:10088000600D211D822F762F6A2F11249F57504013
:100890009AF0F1F088234AF0EE0FFF1FBB1F661F8E
:1008A000771F881F91505040A9F79E3F510580F057
:1008B0000C94B1030C94FC035F3FE4F3983ED4F333
:1008C000869577956795B795F795E7959F5FC1F7FB
:1008D000FE2B880F911D9695879597F90895AEE0A8
:1008E000B0E0E5E7F4E00C943A078C01FA0186E009
:1008F0008C831A83098377FF02C060E070E8CB0124
:1009000001979E838D83A901BF01CE0101960E94AC
:100910009B044D815E8157FD0AC02F8138854217A7
:1009200053070CF49A01F801E20FF31F10822E9680
:10093000E4E00C945607ABE0B0E0E1EAF4E00C949C
:100940002C076C017B018A01FC01178216828381CE
:1009500081FFCCC1CE0101963C01F6019381F701E4
:1009600093FD859193FF81917F01882309F4BAC19A
:10097000853239F493FD859193FF81917F01853212
:1009800029F4B60190E00E949206E7CF912C212C29
:10099000312CFFE1F315D8F08B3279F038F4803246
:1009A00079F08332A1F4232D20611DC08D3261F0D6
:1009B000803369F4232D216016C0832D8260382E88
:1009C000E32DE4603E2E2AC0F32DF8601DC037FCF5
:1009D0002DC020ED280F2A3040F08E32B9F436FCBD
:1009E00081C1232D2064322E19C036FE06C08AE054
:1009F000989E200D1124922E11C0EAE02E9E200D0B
:100A00001124222EF32DF0623F2E08C08C3621F4E3
:100A1000832D8068382E02C0883641F4F70193FD9B
:100A2000859193FF81917F018111B3CF982F9F7D95
:100A30009554933028F40C5F1F4F9FE399830DC0AA
:100A4000833631F0833771F0833509F059C021C006
:100A5000F801808189830E5F1F4F88248394912C35
:100A6000530113C02801F2E04F0E511CF801A08081
:100A7000B18036FE03C0692D70E002C06FEF7FEFDA
:100A8000C5010E9487064C018201F32DFF773F2E9E
:100A900016C0280122E0420E511CF801A080B1804E
:100AA00036FE03C0692D70E002C06FEF7FEFC50115
:100AB0000E947C064C01F32DF0683F2E820133FC2E
:100AC0001BC0822D90E088169906B0F4B60180E232
:100AD00090E00E9492062A94F4CFF50137FC8591AC
:100AE00037FE81915F01B60190E00E9492062110CD
:100AF0002A9421E0821A91088114910471F7E8C0C8
:100B0000843611F0893641F5F80137FE07C060815F
:100B10007181828193810C5F1F4F08C06081718158
:100B2000072E000C880B990B0E5F1F4FF32DFF76DD
:100B30003F2E97FF09C090958095709561957F4FE6
:100B40008F4F9F4FF0683F2E2AE030E0A3010E94B4
:100B5000CE06882E861845C0853731F4232D2F7E8A
:100B6000B22E2AE030E025C0932D997FB92E8F3622
:100B7000C1F018F4883579F0B5C0803719F088379E
:100B800021F0B0C0E92FE061BE2EB4FE0DC0FB2DF8
:100B9000F460BF2E09C034FE0AC0292F2660B22E91
:100BA00006C028E030E005C020E130E002C020E1CE
:100BB00032E0F801B7FE07C06081718182819381C4
:100BC0000C5F1F4F06C06081718180E090E00E5F76
:100BD0001F4FA3010E94CE06882E8618FB2DFF779B
:100BE0003F2E36FE0DC0232D2E7FA22E891458F4E1
:100BF00034FE0BC032FC09C0832D8E7EA82E05C0AA
:100C0000B82CA32C03C0B82C01C0B92CA4FE0FC073
:100C1000FE01E80DF11D8081803321F49A2D997E2B
:100C2000A92E09C0A2FE06C0B394B39404C08A2DB5
:100C3000867809F0B394A3FC11C0A0FE06C0B214DC
:100C400088F4280C922C9B180EC0B21460F4B601E4
:100C500080E290E00E949206B394F7CFB21418F4A9
:100C60002B1802C0982C212CA4FE10C0B60180E3E2
:100C700090E00E949206A2FE17C0A1FC03C088E784
:100C800090E002C088E590E0B6010CC08A2D86781D
:100C900059F0A1FE02C08BE201C080E2A7FC8DE208
:100CA000B60190E00E949206891438F4B60180E300
:100CB00090E00E9492069A94F7CF8A94F301E80D8F
:100CC000F11D8081B60190E00E9492068110F5CF5F
:100CD000222009F442CEB60180E290E00E94920602
:100CE0002A94F6CFF6018681978102C08FEF9FEF9D
:100CF0002B96E2E10C944807FC010590615070408E
:100D00000110D8F7809590958E0F9F1F0895FC01D4
:100D10006150704001900110D8F7809590958E0F2A
:100D20009F1F08950F931F93CF93DF93FB012381A0
:100D300021FD03C08FEF9FEF2CC022FF16C046811C
:100D40005781248135814217530744F4A081B18132
:100D50009D012F5F3F4F318320838C932681378104
:100D60002F5F3F4F3783268314C08B01EC01FB01BB
:100D70000084F185E02D0995892BE1F6D8011696BE
:100D80008D919C911797019617969C938E93169729
:100D9000CE01DF91CF911F910F910895FA01AA27FB
:100DA000283051F1203181F1E8946F936E7F6E5FAE
:100DB0007F4F8F4F9F4FAF4FB1E03ED0B4E03CD05C
:100DC000670F781F891F9A1FA11D680F791F8A1F3F
:100DD000911DA11D6A0F711D811D911DA11D20D0A6
:100DE00009F468943F912AE0269F11243019305D60
:100DF0003193DEF6CF010895462F4770405D419351
:100E0000B3E00FD0C9F7F6CF462F4F70405D4A339D
:100E100018F0495D31FD4052419302D0A9F7EACF65
:100E2000B4E0A6959795879577956795BA95C9F794
:100E300000976105710508959B01AC010A2E069487
:100E40005795479537952795BA95C9F7620F731F40
:100E5000841F951FA01D08952F923F924F925F927D
:100E60006F927F928F929F92AF92BF92CF92DF92BA
:100E7000EF92FF920F931F93CF93DF93CDB7DEB71F
:100E8000CA1BDB0B0FB6F894DEBF0FBECDBF0994B3
:100E90002A88398848885F846E847D848C849B840A
:100EA000AA84B984C884DF80EE80FD800C811B8118
:100EB000AA81B981CE0FD11D0FB6F894DEBF0FBE47
:0A0EC000CDBFED010895F894FFCFB7
:100ECA005B256868753A256868753A3A25686875D1
:040EDA005D20000097
:00000001FF
