:100000000C944A000C945C000C945C000C945C0012
:100010000C945C000C945C000C945C000C945C00F0
:100020000C945C000C945C000C945C000C945C00E0
:100030000C945C000C945C000C9495000C945C0097
:100040000C945C000C945C000C9489010C94A60147
:100050000C945C000C945C000C945C000C945C00B0
:100060000C945C000C945C00476F742064617461B4
:100070003A200050696E672E2E2E0A005265616488
:1000800020556E74696C2055534152542044656D5F
:100090006F0A000011241FBECFEFD8E0DEBFCDBF36
:1000A00023E0A0E0B1E001C01D92AE32B207E1F75B
:1000B0000E94D1010C9489040C940000FC01808101
:1000C000811116C0F89481E0882389F081E0808353
:1000D00094B5926094BD95B5926095BDAEE6B0E0E2
:1000E0009C9192609C9387EC87BD80E0EDCF7894E3
:1000F00008952FB7F89431E0332351F06091010156
:1001000070910201809103019091040130E0F4CFDD
:100110002FBF08950E94790028EE33E040E050E0C0
:100120000E946704CA01B90108951F920F920FB689
:100130000F9211248F939F93AF93BF9380910101EE
:1001400090910201A0910301B09104018C599F4F3D
:10015000AF4FBF4F8093010190930201A093030121
:10016000B0930401BF91AF919F918F910F900FBEFB
:100170000F901F901895CF92DF92EF92FF92CB01D4
:10018000BA010E94480320E030E040E851E40E94B8
:10019000FA039B01AC0160E074E284E79BE40E94F7
:1001A000A00220E030E040E85FE30E942E026B01F5
:1001B0007C0120E030E0A9010E949B0288235CF4CE
:1001C00020E030E040E05FE3C701B6010E942E026C
:1001D0000E9412030AC020E030E040E05FE3C70164
:1001E000B6010E942F020E9412037093C500609313
:1001F000C400E2ECF0E0808186608083E1ECF0E016
:10020000808188698083FF90EF90DF90CF90089580
:100210002FB7F89491E0992339F0809109019091DA
:100220000801891B90E0F7CF2FBF08959091090135
:1002300080910801981761F0809108018F5F809389
:100240000801E0910801F0E0E65FFD4F808108952C
:1002500080E00895FF920F931F93CF93DF93EC01FB
:100260008B01F42E0E940801882381F0CE010E94A8
:1002700008018823D9F3CE010E9416018F1529F0B9
:10028000F80180830F5F1F4FF1CF81E0DF91CF91A5
:100290001F910F91FF900895909107019F5F8091AA
:1002A00006019817E1F390930701E0910701F0E050
:1002B000E65FFE4F6083E1ECF0E080818062808346
:1002C00008950F931F93CF93DF938C01EB01688107
:1002D000662329F02196C8010E944C01F8CFDF91D6
:1002E000CF911F910F9108950F931F93CF93DF9399
:1002F0008C01EB01FE018491882331F021966491F9
:10030000C8010E944C01F6CFDF91CF911F910F9150
:1003100008951F920F920FB60F9211248F93EF93AF
:10032000FF93809109018F5F80930901E09109019A
:10033000F0E08091C600E65FFD4F8083FF91EF9172
:100340008F910F900FBE0F901F9018951F920F92D4
:100350000FB60F9211248F939F93EF93FF93909179
:10036000070180910601981771F0809106018F5F57
:1003700080930601E0910601F0E0E65FFE4F808188
:100380008093C60005C0E1ECF0E080818F7D808322
:10039000FF91EF919F918F910F900FBE0F901F9043
:1003A000189540E855E260E070E085E091E00E9439
:1003B000BB0080E091E00E945E006CE770E085E0A9
:1003C00091E00E94740180E091E00E948A00009117
:1003D0000A0310910B0320910C0330910D03DC01F3
:1003E000CB01801B910BA20BB30B883E9340A10560
:1003F000B10590F063E770E085E091E00E94740140
:1004000080E091E00E948A0060930A0370930B03DE
:1004100080930C0390930D0344E26EE073E085E05B
:1004200091E00E942A01882371F268E670E085E07D
:1004300091E00E9474016EE073E085E091E00E941B
:1004400061016AE085E091E00E944C0180E2EEE00B
:10045000F3E0DF011D928A95E9F7B5CF5058BB272D
:10046000AA270E9446020C94C0030E94B20338F0EF
:100470000E94B90320F039F49F3F19F426F40C943C
:10048000AF030EF4E095E7FB0C94A903E92F0E945B
:10049000D10358F3BA17620773078407950720F052
:1004A00079F4A6F50C94F3030EF4E0950B2EBA2F15
:1004B000A02D0B01B90190010C01CA01A00111246A
:1004C000FF27591B99F0593F50F4503E68F11A1616
:1004D000F040A22F232F342F4427585FF3CF4695A7
:1004E00037952795A795F0405395C9F77EF41F16C9
:1004F000BA0B620B730B840BBAF09150A1F0FF0F93
:10050000BB1F661F771F881FC2F70EC0BA0F621F7E
:10051000731F841F48F4879577956795B795F7956E
:100520009E3F08F0B0CF9395880F08F09927EE0F03
:100530009795879508950E94850308F481E00895B2
:100540000E94B4020C94C0030E94B90358F00E94A8
:10055000B20340F029F45F3F29F00C94A903511134
:100560000C94F4030C94AF030E94D10368F3992315
:10057000B1F3552391F3951B550BBB27AA2762179F
:100580007307840738F09F5F5F4F220F331F441FAC
:10059000AA1FA9F335D00E2E3AF0E0E832D09150E0
:1005A0005040E695001CCAF72BD0FE2F29D0660FCD
:1005B000771F881FBB1F261737074807AB07B0E810
:1005C00009F0BB0B802DBF01FF2793585F4F3AF016
:1005D0009E3F510578F00C94A9030C94F4035F3FFF
:1005E000E4F3983ED4F3869577956795B795F7959C
:1005F0009F5FC9F7880F911D9695879597F9089584
:10060000E1E0660F771F881FBB1F6217730784071F
:10061000BA0720F0621B730B840BBA0BEE1F88F72E
:10062000E09508950E9419036894B1110C94F403A5
:1006300008950E94D90388F09F5798F0B92F992701
:10064000B751B0F0E1F0660F771F881F991F1AF0BD
:10065000BA95C9F714C0B13091F00E94F303B1E02C
:1006600008950C94F303672F782F8827B85F39F02B
:10067000B93FCCF3869577956795B395D9F73EF456
:1006800090958095709561957F4F8F4F9F4F0895FE
:10069000E89409C097FB3EF490958095709561951C
:1006A0007F4F8F4F9F4F9923A9F0F92F96E9BB27D2
:1006B0009395F695879577956795B795F111F8CF4E
:1006C000FAF4BB0F11F460FF1BC06F5F7F4F8F4FB9
:1006D0009F4F16C0882311F096E911C0772321F0AF
:1006E0009EE8872F762F05C0662371F096E8862F47
:1006F00070E060E02AF09A95660F771F881FDAF79E
:10070000880F9695879597F90895990F0008550FCA
:10071000AA0BE0E8FEEF16161706E807F907C0F087
:1007200012161306E407F50798F0621B730B840B8F
:10073000950B39F40A2661F0232B242B252B21F469
:1007400008950A2609F4A140A6958FEF811D811D09
:10075000089597F99F6780E870E060E008959FEF43
:1007600080EC089500240A94161617061806090648
:10077000089500240A941216130614060506089517
:10078000092E0394000C11F4882352F0BB0F40F49F
:10079000BF2B11F460FF04C06F5F7F4F8F4F9F4FDF
:1007A000089557FD9058440F551F59F05F3F71F061
:1007B0004795880F97FB991F61F09F3F79F08795C8
:1007C0000895121613061406551FF2CF4695F1DF51
:1007D00008C0161617061806991FF1CF86957105E1
:1007E000610508940895E894BB2766277727CB0115
:1007F00097F908950E940D040C94C0030E94B2035F
:1008000038F00E94B90320F0952311F00C94A9034D
:100810000C94AF0311240C94F4030E94D10370F3E1
:10082000959FC1F3950F50E0551F629FF001729F95
:10083000BB27F00DB11D639FAA27F00DB11DAA1FA4
:10084000649F6627B00DA11D661F829F2227B00DF1
:10085000A11D621F739FB00DA11D621F839FA00D7C
:10086000611D221F749F3327A00D611D231F849FCC
:10087000600D211D822F762F6A2F11249F57504023
:100880009AF0F1F088234AF0EE0FFF1FBB1F661F9E
:10089000771F881F91505040A9F79E3F510580F067
:1008A0000C94A9030C94F4035F3FE4F3983ED4F353
:1008B000869577956795B795F795E7959F5FC1F70B
:1008C000FE2B880F911D9695879597F90895A1E2C3
:1008D0001A2EAA1BBB1BFD010DC0AA1FBB1FEE1FBA
:1008E000FF1FA217B307E407F50720F0A21BB30B05
:1008F000E40BF50B661F771F881F991F1A9469F781
:1009000060957095809590959B01AC01BD01CF01DC
:060910000895F894FFCFEA
:00000001FF
